{
  "_format": "hh-sol-artifact-1",
  "contractName": "ProofOfOwnership",
  "sourceName": "contracts/Proof_of_Ownership.sol",
  "abi": [
    {
      "anonymous": false,
      "inputs": [
        {
          "indexed": false,
          "internalType": "string",
          "name": "hash",
          "type": "string"
        },
        {
          "indexed": false,
          "internalType": "address",
          "name": "owner",
          "type": "address"
        },
        {
          "indexed": false,
          "internalType": "uint256",
          "name": "timestamp",
          "type": "uint256"
        }
      ],
      "name": "RegisteredDocument",
      "type": "event"
    },
    {
      "inputs": [
        {
          "internalType": "string",
          "name": "_hash",
          "type": "string"
        }
      ],
      "name": "DocumentRegister",
      "outputs": [],
      "stateMutability": "nonpayable",
      "type": "function"
    },
    {
      "inputs": [
        {
          "internalType": "string",
          "name": "_hash",
          "type": "string"
        }
      ],
      "name": "VerifyDocument",
      "outputs": [
        {
          "internalType": "address",
          "name": "",
          "type": "address"
        },
        {
          "internalType": "uint256",
          "name": "",
          "type": "uint256"
        }
      ],
      "stateMutability": "view",
      "type": "function"
    }
  ],
  "bytecode": "0x6080604052348015600f57600080fd5b50610a9c8061001f6000396000f3fe608060405234801561001057600080fd5b50600436106100365760003560e01c80634e2772d31461003b5780635ed5234a14610057575b600080fd5b610055600480360381019061005091906104d4565b610088565b005b610071600480360381019061006c91906104d4565b6101e2565b60405161007f929190610577565b60405180910390f35b600080826040516100999190610611565b908152602001604051809103902060020154146100eb576040517f08c379a00000000000000000000000000000000000000000000000000000000081526004016100e290610685565b60405180910390fd5b60405180606001604052808281526020013373ffffffffffffffffffffffffffffffffffffffff1681526020014281525060008260405161012c9190610611565b9081526020016040518091039020600082015181600001908161014f91906108b1565b5060208201518160010160006101000a81548173ffffffffffffffffffffffffffffffffffffffff021916908373ffffffffffffffffffffffffffffffffffffffff160217905550604082015181600201559050507f843db69947d74b675e769c6d03afd54de1a55d7443d809b13142baebb63e75d98133426040516101d7939291906109bc565b60405180910390a150565b600080600080846040516101f69190610611565b90815260200160405180910390206002015403610248576040517f08c379a000000000000000000000000000000000000000000000000000000000815260040161023f90610a46565b60405180910390fd5b600080846040516102599190610611565b9081526020016040518091039020604051806060016040529081600082018054610282906106d4565b80601f01602080910402602001604051908101604052809291908181526020018280546102ae906106d4565b80156102fb5780601f106102d0576101008083540402835291602001916102fb565b820191906000526020600020905b8154815290600101906020018083116102de57829003601f168201915b505050505081526020016001820160009054906101000a900473ffffffffffffffffffffffffffffffffffffffff1673ffffffffffffffffffffffffffffffffffffffff1673ffffffffffffffffffffffffffffffffffffffff1681526020016002820154815250509050806020015181604001519250925050915091565b6000604051905090565b600080fd5b600080fd5b600080fd5b600080fd5b6000601f19601f8301169050919050565b7f4e487b7100000000000000000000000000000000000000000000000000000000600052604160045260246000fd5b6103e182610398565b810181811067ffffffffffffffff82111715610400576103ff6103a9565b5b80604052505050565b600061041361037a565b905061041f82826103d8565b919050565b600067ffffffffffffffff82111561043f5761043e6103a9565b5b61044882610398565b9050602081019050919050565b82818337600083830152505050565b600061047761047284610424565b610409565b90508281526020810184848401111561049357610492610393565b5b61049e848285610455565b509392505050565b600082601f8301126104bb576104ba61038e565b5b81356104cb848260208601610464565b91505092915050565b6000602082840312156104ea576104e9610384565b5b600082013567ffffffffffffffff81111561050857610507610389565b5b610514848285016104a6565b91505092915050565b600073ffffffffffffffffffffffffffffffffffffffff82169050919050565b60006105488261051d565b9050919050565b6105588161053d565b82525050565b6000819050919050565b6105718161055e565b82525050565b600060408201905061058c600083018561054f565b6105996020830184610568565b9392505050565b600081519050919050565b600081905092915050565b60005b838110156105d45780820151818401526020810190506105b9565b60008484015250505050565b60006105eb826105a0565b6105f581856105ab565b93506106058185602086016105b6565b80840191505092915050565b600061061d82846105e0565b915081905092915050565b600082825260208201905092915050565b7f446f63756d656e7420616c726561647920526567697374657265640000000000600082015250565b600061066f601b83610628565b915061067a82610639565b602082019050919050565b6000602082019050818103600083015261069e81610662565b9050919050565b7f4e487b7100000000000000000000000000000000000000000000000000000000600052602260045260246000fd5b600060028204905060018216806106ec57607f821691505b6020821081036106ff576106fe6106a5565b5b50919050565b60008190508160005260206000209050919050565b60006020601f8301049050919050565b600082821b905092915050565b6000600883026107677fffffffffffffffffffffffffffffffffffffffffffffffffffffffffffffffff8261072a565b610771868361072a565b95508019841693508086168417925050509392505050565b6000819050919050565b60006107ae6107a96107a48461055e565b610789565b61055e565b9050919050565b6000819050919050565b6107c883610793565b6107dc6107d4826107b5565b848454610737565b825550505050565b600090565b6107f16107e4565b6107fc8184846107bf565b505050565b5b81811015610820576108156000826107e9565b600181019050610802565b5050565b601f8211156108655761083681610705565b61083f8461071a565b8101602085101561084e578190505b61086261085a8561071a565b830182610801565b50505b505050565b600082821c905092915050565b60006108886000198460080261086a565b1980831691505092915050565b60006108a18383610877565b9150826002028217905092915050565b6108ba826105a0565b67ffffffffffffffff8111156108d3576108d26103a9565b5b6108dd82546106d4565b6108e8828285610824565b600060209050601f83116001811461091b5760008415610909578287015190505b6109138582610895565b86555061097b565b601f19841661092986610705565b60005b828110156109515784890151825560018201915060208501945060208101905061092c565b8683101561096e578489015161096a601f891682610877565b8355505b6001600288020188555050505b505050505050565b600061098e826105a0565b6109988185610628565b93506109a88185602086016105b6565b6109b181610398565b840191505092915050565b600060608201905081810360008301526109d68186610983565b90506109e5602083018561054f565b6109f26040830184610568565b949350505050565b7f446f63756d656e74206e6f7420466f756e640000000000000000000000000000600082015250565b6000610a30601283610628565b9150610a3b826109fa565b602082019050919050565b60006020820190508181036000830152610a5f81610a23565b905091905056fea264697066735822122018ee0849da5849208650ea7e5b1ce3f521f4fa79d2488e2aa4786e1f7742945564736f6c634300081c0033",
  "linkReferences": {},
  "deployedLinkReferences": {}
}