{
  "_format": "hh-sol-artifact-1",
  "contractName": "ProofOfOwnership",
  "sourceName": "contracts/Proof_of_Ownership.sol",
  "abi": [
    {
      "anonymous": false,
      "inputs": [
        {
          "indexed": false,
          "internalType": "string",
          "name": "hash",
          "type": "string"
        },
        {
          "indexed": false,
          "internalType": "address",
          "name": "owner",
          "type": "address"
        },
        {
          "indexed": false,
          "internalType": "uint256",
          "name": "timestamp",
          "type": "uint256"
        }
      ],
      "name": "RegisteredDocument",
      "type": "event"
    },
    {
      "inputs": [
        {
          "internalType": "uint256",
          "name": "",
          "type": "uint256"
        }
      ],
      "name": "DocumentHashes",
      "outputs": [
        {
          "internalType": "string",
          "name": "",
          "type": "string"
        }
      ],
      "stateMutability": "view",
      "type": "function"
    },
    {
      "inputs": [
        {
          "internalType": "string",
          "name": "_hash",
          "type": "string"
        }
      ],
      "name": "DocumentRegister",
      "outputs": [],
      "stateMutability": "nonpayable",
      "type": "function"
    },
    {
      "inputs": [
        {
          "internalType": "string",
          "name": "_hash",
          "type": "string"
        }
      ],
      "name": "VerifyDocument",
      "outputs": [
        {
          "internalType": "address",
          "name": "",
          "type": "address"
        },
        {
          "internalType": "uint256",
          "name": "",
          "type": "uint256"
        }
      ],
      "stateMutability": "view",
      "type": "function"
    },
    {
      "inputs": [],
      "name": "getDocument_hashes",
      "outputs": [
        {
          "internalType": "string[]",
          "name": "",
          "type": "string[]"
        }
      ],
      "stateMutability": "view",
      "type": "function"
    }
  ],
  "bytecode": "0x6080604052348015600f57600080fd5b50610e638061001f6000396000f3fe608060405234801561001057600080fd5b506004361061004c5760003560e01c80634e2772d3146100515780635ed5234a1461006d578063940a5dad1461009e578063a85577a2146100bc575b600080fd5b61006b600480360381019061006691906106f2565b6100ec565b005b610087600480360381019061008291906106f2565b61027b565b604051610095929190610795565b60405180910390f35b6100a6610413565b6040516100b391906108ff565b60405180910390f35b6100d660048036038101906100d1919061094d565b6104ec565b6040516100e391906109c4565b60405180910390f35b600080826040516100fd9190610a22565b9081526020016040518091039020600201541461014f576040517f08c379a000000000000000000000000000000000000000000000000000000000815260040161014690610a85565b60405180910390fd5b60405180606001604052808281526020013373ffffffffffffffffffffffffffffffffffffffff168152602001428152506000826040516101909190610a22565b908152602001604051809103902060008201518160000190816101b39190610cb1565b5060208201518160010160006101000a81548173ffffffffffffffffffffffffffffffffffffffff021916908373ffffffffffffffffffffffffffffffffffffffff1602179055506040820151816002015590505060018190806001815401808255809150506001900390600052602060002001600090919091909150908161023c9190610cb1565b507f843db69947d74b675e769c6d03afd54de1a55d7443d809b13142baebb63e75d981334260405161027093929190610d83565b60405180910390a150565b6000806000808460405161028f9190610a22565b908152602001604051809103902060020154036102e1576040517f08c379a00000000000000000000000000000000000000000000000000000000081526004016102d890610e0d565b60405180910390fd5b600080846040516102f29190610a22565b908152602001604051809103902060405180606001604052908160008201805461031b90610ad4565b80601f016020809104026020016040519081016040528092919081815260200182805461034790610ad4565b80156103945780601f1061036957610100808354040283529160200191610394565b820191906000526020600020905b81548152906001019060200180831161037757829003601f168201915b505050505081526020016001820160009054906101000a900473ffffffffffffffffffffffffffffffffffffffff1673ffffffffffffffffffffffffffffffffffffffff1673ffffffffffffffffffffffffffffffffffffffff1681526020016002820154815250509050806020015181604001519250925050915091565b60606001805480602002602001604051908101604052809291908181526020016000905b828210156104e357838290600052602060002001805461045690610ad4565b80601f016020809104026020016040519081016040528092919081815260200182805461048290610ad4565b80156104cf5780601f106104a4576101008083540402835291602001916104cf565b820191906000526020600020905b8154815290600101906020018083116104b257829003601f168201915b505050505081526020019060010190610437565b50505050905090565b600181815481106104fc57600080fd5b90600052602060002001600091509050805461051790610ad4565b80601f016020809104026020016040519081016040528092919081815260200182805461054390610ad4565b80156105905780601f1061056557610100808354040283529160200191610590565b820191906000526020600020905b81548152906001019060200180831161057357829003601f168201915b505050505081565b6000604051905090565b600080fd5b600080fd5b600080fd5b600080fd5b6000601f19601f8301169050919050565b7f4e487b7100000000000000000000000000000000000000000000000000000000600052604160045260246000fd5b6105ff826105b6565b810181811067ffffffffffffffff8211171561061e5761061d6105c7565b5b80604052505050565b6000610631610598565b905061063d82826105f6565b919050565b600067ffffffffffffffff82111561065d5761065c6105c7565b5b610666826105b6565b9050602081019050919050565b82818337600083830152505050565b600061069561069084610642565b610627565b9050828152602081018484840111156106b1576106b06105b1565b5b6106bc848285610673565b509392505050565b600082601f8301126106d9576106d86105ac565b5b81356106e9848260208601610682565b91505092915050565b600060208284031215610708576107076105a2565b5b600082013567ffffffffffffffff811115610726576107256105a7565b5b610732848285016106c4565b91505092915050565b600073ffffffffffffffffffffffffffffffffffffffff82169050919050565b60006107668261073b565b9050919050565b6107768161075b565b82525050565b6000819050919050565b61078f8161077c565b82525050565b60006040820190506107aa600083018561076d565b6107b76020830184610786565b9392505050565b600081519050919050565b600082825260208201905092915050565b6000819050602082019050919050565b600081519050919050565b600082825260208201905092915050565b60005b83811015610824578082015181840152602081019050610809565b60008484015250505050565b600061083b826107ea565b61084581856107f5565b9350610855818560208601610806565b61085e816105b6565b840191505092915050565b60006108758383610830565b905092915050565b6000602082019050919050565b6000610895826107be565b61089f81856107c9565b9350836020820285016108b1856107da565b8060005b858110156108ed57848403895281516108ce8582610869565b94506108d98361087d565b925060208a019950506001810190506108b5565b50829750879550505050505092915050565b60006020820190508181036000830152610919818461088a565b905092915050565b61092a8161077c565b811461093557600080fd5b50565b60008135905061094781610921565b92915050565b600060208284031215610963576109626105a2565b5b600061097184828501610938565b91505092915050565b600082825260208201905092915050565b6000610996826107ea565b6109a0818561097a565b93506109b0818560208601610806565b6109b9816105b6565b840191505092915050565b600060208201905081810360008301526109de818461098b565b905092915050565b600081905092915050565b60006109fc826107ea565b610a0681856109e6565b9350610a16818560208601610806565b80840191505092915050565b6000610a2e82846109f1565b915081905092915050565b7f446f63756d656e7420616c726561647920526567697374657265640000000000600082015250565b6000610a6f601b8361097a565b9150610a7a82610a39565b602082019050919050565b60006020820190508181036000830152610a9e81610a62565b9050919050565b7f4e487b7100000000000000000000000000000000000000000000000000000000600052602260045260246000fd5b60006002820490506001821680610aec57607f821691505b602082108103610aff57610afe610aa5565b5b50919050565b60008190508160005260206000209050919050565b60006020601f8301049050919050565b600082821b905092915050565b600060088302610b677fffffffffffffffffffffffffffffffffffffffffffffffffffffffffffffffff82610b2a565b610b718683610b2a565b95508019841693508086168417925050509392505050565b6000819050919050565b6000610bae610ba9610ba48461077c565b610b89565b61077c565b9050919050565b6000819050919050565b610bc883610b93565b610bdc610bd482610bb5565b848454610b37565b825550505050565b600090565b610bf1610be4565b610bfc818484610bbf565b505050565b5b81811015610c2057610c15600082610be9565b600181019050610c02565b5050565b601f821115610c6557610c3681610b05565b610c3f84610b1a565b81016020851015610c4e578190505b610c62610c5a85610b1a565b830182610c01565b50505b505050565b600082821c905092915050565b6000610c8860001984600802610c6a565b1980831691505092915050565b6000610ca18383610c77565b9150826002028217905092915050565b610cba826107ea565b67ffffffffffffffff811115610cd357610cd26105c7565b5b610cdd8254610ad4565b610ce8828285610c24565b600060209050601f831160018114610d1b5760008415610d09578287015190505b610d138582610c95565b865550610d7b565b601f198416610d2986610b05565b60005b82811015610d5157848901518255600182019150602085019450602081019050610d2c565b86831015610d6e5784890151610d6a601f891682610c77565b8355505b6001600288020188555050505b505050505050565b60006060820190508181036000830152610d9d818661098b565b9050610dac602083018561076d565b610db96040830184610786565b949350505050565b7f446f63756d656e74206e6f7420466f756e640000000000000000000000000000600082015250565b6000610df760128361097a565b9150610e0282610dc1565b602082019050919050565b60006020820190508181036000830152610e2681610dea565b905091905056fea2646970667358221220bd449598b26baaf5605304bac4d705d02b6e0ebebdf21357cf708bb92c9d91a564736f6c634300081c0033",
  "linkReferences": {},
  "deployedLinkReferences": {}
}