{
  "_format": "hh-sol-artifact-1",
  "contractName": "ProofOfOwnership",
  "sourceName": "contracts/Proof_of_Ownership.sol",
  "abi": [
    {
      "anonymous": false,
      "inputs": [
        {
          "indexed": false,
          "internalType": "string",
          "name": "hash",
          "type": "string"
        },
        {
          "indexed": false,
          "internalType": "address",
          "name": "owner",
          "type": "address"
        },
        {
          "indexed": false,
          "internalType": "uint256",
          "name": "timestamp",
          "type": "uint256"
        },
        {
          "indexed": false,
          "internalType": "string",
          "name": "ipfsHash",
          "type": "string"
        }
      ],
      "name": "RegisteredDocument",
      "type": "event"
    },
    {
      "inputs": [
        {
          "internalType": "uint256",
          "name": "",
          "type": "uint256"
        }
      ],
      "name": "DocumentHashes",
      "outputs": [
        {
          "internalType": "string",
          "name": "",
          "type": "string"
        }
      ],
      "stateMutability": "view",
      "type": "function"
    },
    {
      "inputs": [
        {
          "internalType": "string",
          "name": "_hash",
          "type": "string"
        },
        {
          "internalType": "string",
          "name": "_ipfsHash",
          "type": "string"
        }
      ],
      "name": "DocumentRegister",
      "outputs": [],
      "stateMutability": "nonpayable",
      "type": "function"
    },
    {
      "inputs": [
        {
          "internalType": "string",
          "name": "_hash",
          "type": "string"
        }
      ],
      "name": "VerifyDocument",
      "outputs": [
        {
          "internalType": "address",
          "name": "",
          "type": "address"
        },
        {
          "internalType": "uint256",
          "name": "",
          "type": "uint256"
        },
        {
          "internalType": "string",
          "name": "",
          "type": "string"
        }
      ],
      "stateMutability": "view",
      "type": "function"
    },
    {
      "inputs": [
        {
          "internalType": "string",
          "name": "_hash",
          "type": "string"
        }
      ],
      "name": "getDocument",
      "outputs": [
        {
          "internalType": "string",
          "name": "",
          "type": "string"
        },
        {
          "internalType": "address",
          "name": "",
          "type": "address"
        },
        {
          "internalType": "uint256",
          "name": "",
          "type": "uint256"
        },
        {
          "internalType": "string",
          "name": "",
          "type": "string"
        }
      ],
      "stateMutability": "view",
      "type": "function"
    },
    {
      "inputs": [],
      "name": "getDocument_hashes",
      "outputs": [
        {
          "internalType": "string[]",
          "name": "",
          "type": "string[]"
        }
      ],
      "stateMutability": "view",
      "type": "function"
    }
  ],
  "bytecode": "0x6080604052348015600f57600080fd5b5061123e8061001f6000396000f3fe608060405234801561001057600080fd5b50600436106100575760003560e01c80635ed5234a1461005c5780637ccb6a641461008e578063940a5dad146100c15780639a295b4a146100df578063a85577a2146100fb575b600080fd5b61007660048036038101906100719190610a2b565b61012b565b60405161008593929190610b4d565b60405180910390f35b6100a860048036038101906100a39190610a2b565b610360565b6040516100b89493929190610b8b565b60405180910390f35b6100c961059e565b6040516100d69190610cea565b60405180910390f35b6100f960048036038101906100f49190610d0c565b610677565b005b61011560048036038101906101109190610db0565b610825565b6040516101229190610ddd565b60405180910390f35b6000806060600080856040516101419190610e3b565b90815260200160405180910390206002015403610193576040517f08c379a000000000000000000000000000000000000000000000000000000000815260040161018a90610e9e565b60405180910390fd5b600080856040516101a49190610e3b565b90815260200160405180910390206040518060800160405290816000820180546101cd90610eed565b80601f01602080910402602001604051908101604052809291908181526020018280546101f990610eed565b80156102465780601f1061021b57610100808354040283529160200191610246565b820191906000526020600020905b81548152906001019060200180831161022957829003601f168201915b505050505081526020016001820160009054906101000a900473ffffffffffffffffffffffffffffffffffffffff1673ffffffffffffffffffffffffffffffffffffffff1673ffffffffffffffffffffffffffffffffffffffff168152602001600282015481526020016003820180546102bf90610eed565b80601f01602080910402602001604051908101604052809291908181526020018280546102eb90610eed565b80156103385780601f1061030d57610100808354040283529160200191610338565b820191906000526020600020905b81548152906001019060200180831161031b57829003601f168201915b5050505050815250509050806020015181604001518260600151935093509350509193909250565b60606000806060600080866040516103789190610e3b565b908152602001604051809103902060020154036103ca576040517f08c379a00000000000000000000000000000000000000000000000000000000081526004016103c190610e9e565b60405180910390fd5b600080866040516103db9190610e3b565b908152602001604051809103902060405180608001604052908160008201805461040490610eed565b80601f016020809104026020016040519081016040528092919081815260200182805461043090610eed565b801561047d5780601f106104525761010080835404028352916020019161047d565b820191906000526020600020905b81548152906001019060200180831161046057829003601f168201915b505050505081526020016001820160009054906101000a900473ffffffffffffffffffffffffffffffffffffffff1673ffffffffffffffffffffffffffffffffffffffff1673ffffffffffffffffffffffffffffffffffffffff168152602001600282015481526020016003820180546104f690610eed565b80601f016020809104026020016040519081016040528092919081815260200182805461052290610eed565b801561056f5780601f106105445761010080835404028352916020019161056f565b820191906000526020600020905b81548152906001019060200180831161055257829003601f168201915b505050505081525050905080600001518160200151826040015183606001519450945094509450509193509193565b60606001805480602002602001604051908101604052809291908181526020016000905b8282101561066e5783829060005260206000200180546105e190610eed565b80601f016020809104026020016040519081016040528092919081815260200182805461060d90610eed565b801561065a5780601f1061062f5761010080835404028352916020019161065a565b820191906000526020600020905b81548152906001019060200180831161063d57829003601f168201915b5050505050815260200190600101906105c2565b50505050905090565b600080836040516106889190610e3b565b908152602001604051809103902060020154146106da576040517f08c379a00000000000000000000000000000000000000000000000000000000081526004016106d190610f6a565b60405180910390fd5b60405180608001604052808381526020013373ffffffffffffffffffffffffffffffffffffffff168152602001428152602001828152506000836040516107219190610e3b565b908152602001604051809103902060008201518160000190816107449190611136565b5060208201518160010160006101000a81548173ffffffffffffffffffffffffffffffffffffffff021916908373ffffffffffffffffffffffffffffffffffffffff1602179055506040820151816002015560608201518160030190816107ab9190611136565b509050506001829080600181540180825580915050600190039060005260206000200160009091909190915090816107e39190611136565b507ff874f89aec3e2b3f255daa83eb1660a78c27f5342442f9cefeb2b59a94df69c3823342846040516108199493929190610b8b565b60405180910390a15050565b6001818154811061083557600080fd5b90600052602060002001600091509050805461085090610eed565b80601f016020809104026020016040519081016040528092919081815260200182805461087c90610eed565b80156108c95780601f1061089e576101008083540402835291602001916108c9565b820191906000526020600020905b8154815290600101906020018083116108ac57829003601f168201915b505050505081565b6000604051905090565b600080fd5b600080fd5b600080fd5b600080fd5b6000601f19601f8301169050919050565b7f4e487b7100000000000000000000000000000000000000000000000000000000600052604160045260246000fd5b610938826108ef565b810181811067ffffffffffffffff8211171561095757610956610900565b5b80604052505050565b600061096a6108d1565b9050610976828261092f565b919050565b600067ffffffffffffffff82111561099657610995610900565b5b61099f826108ef565b9050602081019050919050565b82818337600083830152505050565b60006109ce6109c98461097b565b610960565b9050828152602081018484840111156109ea576109e96108ea565b5b6109f58482856109ac565b509392505050565b600082601f830112610a1257610a116108e5565b5b8135610a228482602086016109bb565b91505092915050565b600060208284031215610a4157610a406108db565b5b600082013567ffffffffffffffff811115610a5f57610a5e6108e0565b5b610a6b848285016109fd565b91505092915050565b600073ffffffffffffffffffffffffffffffffffffffff82169050919050565b6000610a9f82610a74565b9050919050565b610aaf81610a94565b82525050565b6000819050919050565b610ac881610ab5565b82525050565b600081519050919050565b600082825260208201905092915050565b60005b83811015610b08578082015181840152602081019050610aed565b60008484015250505050565b6000610b1f82610ace565b610b298185610ad9565b9350610b39818560208601610aea565b610b42816108ef565b840191505092915050565b6000606082019050610b626000830186610aa6565b610b6f6020830185610abf565b8181036040830152610b818184610b14565b9050949350505050565b60006080820190508181036000830152610ba58187610b14565b9050610bb46020830186610aa6565b610bc16040830185610abf565b8181036060830152610bd38184610b14565b905095945050505050565b600081519050919050565b600082825260208201905092915050565b6000819050602082019050919050565b600082825260208201905092915050565b6000610c2682610ace565b610c308185610c0a565b9350610c40818560208601610aea565b610c49816108ef565b840191505092915050565b6000610c608383610c1b565b905092915050565b6000602082019050919050565b6000610c8082610bde565b610c8a8185610be9565b935083602082028501610c9c85610bfa565b8060005b85811015610cd85784840389528151610cb98582610c54565b9450610cc483610c68565b925060208a01995050600181019050610ca0565b50829750879550505050505092915050565b60006020820190508181036000830152610d048184610c75565b905092915050565b60008060408385031215610d2357610d226108db565b5b600083013567ffffffffffffffff811115610d4157610d406108e0565b5b610d4d858286016109fd565b925050602083013567ffffffffffffffff811115610d6e57610d6d6108e0565b5b610d7a858286016109fd565b9150509250929050565b610d8d81610ab5565b8114610d9857600080fd5b50565b600081359050610daa81610d84565b92915050565b600060208284031215610dc657610dc56108db565b5b6000610dd484828501610d9b565b91505092915050565b60006020820190508181036000830152610df78184610b14565b905092915050565b600081905092915050565b6000610e1582610ace565b610e1f8185610dff565b9350610e2f818560208601610aea565b80840191505092915050565b6000610e478284610e0a565b915081905092915050565b7f446f63756d656e74206e6f7420466f756e640000000000000000000000000000600082015250565b6000610e88601283610ad9565b9150610e9382610e52565b602082019050919050565b60006020820190508181036000830152610eb781610e7b565b9050919050565b7f4e487b7100000000000000000000000000000000000000000000000000000000600052602260045260246000fd5b60006002820490506001821680610f0557607f821691505b602082108103610f1857610f17610ebe565b5b50919050565b7f446f63756d656e7420616c726561647920526567697374657265640000000000600082015250565b6000610f54601b83610ad9565b9150610f5f82610f1e565b602082019050919050565b60006020820190508181036000830152610f8381610f47565b9050919050565b60008190508160005260206000209050919050565b60006020601f8301049050919050565b600082821b905092915050565b600060088302610fec7fffffffffffffffffffffffffffffffffffffffffffffffffffffffffffffffff82610faf565b610ff68683610faf565b95508019841693508086168417925050509392505050565b6000819050919050565b600061103361102e61102984610ab5565b61100e565b610ab5565b9050919050565b6000819050919050565b61104d83611018565b6110616110598261103a565b848454610fbc565b825550505050565b600090565b611076611069565b611081818484611044565b505050565b5b818110156110a55761109a60008261106e565b600181019050611087565b5050565b601f8211156110ea576110bb81610f8a565b6110c484610f9f565b810160208510156110d3578190505b6110e76110df85610f9f565b830182611086565b50505b505050565b600082821c905092915050565b600061110d600019846008026110ef565b1980831691505092915050565b600061112683836110fc565b9150826002028217905092915050565b61113f82610ace565b67ffffffffffffffff81111561115857611157610900565b5b6111628254610eed565b61116d8282856110a9565b600060209050601f8311600181146111a0576000841561118e578287015190505b611198858261111a565b865550611200565b601f1984166111ae86610f8a565b60005b828110156111d6578489015182556001820191506020850194506020810190506111b1565b868310156111f357848901516111ef601f8916826110fc565b8355505b6001600288020188555050505b50505050505056fea2646970667358221220ca827eef140213b4719e3b33dac0044c1db918419a8f4e2811049eff56ab956164736f6c634300081c0033",
  "linkReferences": {},
  "deployedLinkReferences": {}
}